:140000000C947E000C94ED030C943F040C94E3040C9491049F
:040078000C94A90338
:14008C004275696C7420776974682044454D4F20636F6D7070
:1400A000696C65722E204E4F4E2D434F4D4D45524349414C5E
:1400B40020555345204F4E4C5920687474703A2F2F696D611A
:1400C800676563726166742E636F6D0A01420013004003A098
:1400DC0001CF008A006700440033002200190010000800077E
:1400F00000030001000000626C756500CFEFD0E1CDBFDEBFB8
:14010400C451D0400AEA08830024E8E2F1E011E0EB32F1077E
:1401180011F00192FBCF0083E4EDF0E0A0E0B1E010E000E070
:14012C000BBFEC3FF10721F0C89531960D92F9CF0E9435055A
:14014000FFCF0E94CD05E22EC02E21976B854D85AA2411C052
:140154002090000128822E2D2A0D0C2D38D22090000128820C
:140168002E2D2A0D0C2D060F01502FD2A394A41668F3AA2437
:14017C0011C02090000128822E2D0C2D0A0D23D220900001F2
:1401900028822E2D240F21500C2D0A0D1AD2A394A61668F328
:1401A40021960C94C20508950E9467050E94CD052197AF841F
:1401B8004A2D5527662777272A2C3324220C331C81E090E01A
:1401CC007C01E218F3086C01AA24BB2458C020900001288220
:1401E0002D85260F0B85040FF4D12090000128822D85260F7A
:1401F4000B85041BECD12090000128822D85261B0B85041B8E
:14020800E4D12090000128822D85261B0B85040FDCD12090DF
:14021C00000128822D85240F0B85060FD4D120900001288299
:140230002D85240F0B85061BCCD12090000128822D85241B3B
:140244000B85061BC4D12090000128822D85241B0B85060F6F
:14025800BCD16F5F7F4FAC0CBD1CC60102966C011501220CC8
:14026C00331C2E0C3F1C44245524421453043CF441505040BB
:14028000AE0CBF1CC70102967C01461757070CF0A4CF219617
:140294000E94C205249608950E9467050E94CD0579012997DA
:1402A8002F88388C0B881C88201831083A822982298C3A8C3D
:1402BC002E183F083C822B8229803A800101200C311C3E8298
:1402D0002D822B803C800101200C311C38862F82AB88BC88A3
:1402E400670141E050E061E070E089819A818030E0E09E0782
:1402F80084F44FEF5FEF809590958F5F9F4F9A8389838D81A1
:14030C009E81809590958F5F9F4F9E838D838B819C8180309E
:14032000E0E09E0784F46FEF7FEF809590958F5F9F4F9C83EB
:140334008B838F819885809590958F5F9F4F98878F83209083
:14034800000128822E2D0B8940D109801A80002049F4112045
:14035C0039F40B801C80002019F4112009F444C009801A80B7
:140370000B811C8100161106FCF0EE24FF24A40EB51E0F80EE
:140384001884E00CF11C09801A800E141F0434F4C60ED71E77
:140398000D801E80E018F1082090000128822C2D0A2D13D166
:1403AC000F88188CA014B10421F71EC0EE24FF24C60ED71EA5
:1403C0000D801E80E00CF11C0B801C800E141F0434F4A40EBF
:1403D400B51E0F801884E018F1082090000128822C2D0A2D3B
:1403E800F4D0098C1A8CC014D10421F729960E94C20524965F
:1403FC00089521972224288204C0000088818F5F88838881D9
:140410008031C8F3219608958FEF8ABB8FE384BB85B38F637A
:1404240085BB0895AA9222242ABA85B3897F85BBE4DFA9B2E3
:140438008FEF8ABB85B3866085BB0A2DA9900895AA92A02E78
:14044C00EDDF802F8370E1F3ABBA85B38A7F85BBD0DF85B38D
:14046000856085BBA9900895AA92A02EDDDF802F8370E1F351
:14047400ABBA85B3827F85BBC0DF85B38D6085BBA9900895BC
:14048800AA92CEDF802F8370E1F322242ABA85B3817F85BB5F
:14049C00B0DFA9B285B38E6085BB8FEF8ABB0A2DA99008952C
:1404B0004A935A93A801042F0F7FD6DF8A01012F1127D2DFAB
:1404C40004E2C0DF5991499108954A935A9300271127ECDF4A
:1404D800442755270027BFD04F5F5F4F80EE91E04817590779
:1404EC00BCF35991499108954A935A9300E010E1D9DF44272E
:14050000552704C00027ABD04F5F5F4F80E098E04817590712
:14051400B8F35991499108954A935A9300EE11E0C5DF44270F
:140528005527002798D04F5F5F4F80E09FE048175907BCF30B
:14053C005991499108954A93402F042F005289D049910895A9
:14055000AA92BA92580104C0F50101915F01F1DFF5012080A4
:140564002220C1F7B990A99008950E94D305C22EA02E2C2DD9
:1405780033270EE110E00E94A6052A2C3324200E311E51016D
:14058C00810190DF0C94B60508950E94E2055901C02E4C2D28
:1405A0005527440F551F440F551F440F551F4050504F8A01BC
:1405B4007DDF442707C0E42FFF27EA0DFB1D00814CD04395E8
:1405C8004830B8F30C94E90508950E94D105A22EC02EEE802D
:1405DC002A2D33270EE110E00E94A605180128E030E00C2DC4
:1405F00011270E947005C80180529E4F5C01A20CB31C8501C0
:1406040055DF05EC1FDF3EDFA02EEE2081F028E030E00C2D04
:1406180011270E946C0517E0101B222717FD209501E00E94CC
:14062C000206A02A11C028E030E00C2D11270E946C0517E084
:14064000101B222717FD209501E00E940206202E2094A2201A
:140654000A2D03D00C94BB050895AA92A02E0A2D01DF00EC7E
:14066800EFDEA99008950E94D305C22EA02E2C2D33270EE101
:14067C0010E00E94A605180128E030E00A2D11270E94700576
:14069000C80180529E4F5C01A20CB31C850108DF0C94B6052C
:1406A4000895B8DEAC9801E010E024D0AC9AAD9800EED8DED7
:1406B80001E0D6DE02E4C4DE0EE1D2DE0027D0DE03E4BEDE1A
:1406CC000027CCDE0027CADE00E4B8DE0EE1C6DE0027C4DEA4
:1406E00001E4B2DE02E0C0DE0027BEDE02E2ACDE0CE9AADE63
:1406F40000E8A8CE0E94D805442755270BC0662777276F5F6A
:140708007F4F84E398E068177907CCF34F5F5F4F4017510767
:14071C0090F30C94DD050895E7DEFADED2CE5D9BFECF0CB960
:1407300008954A935A93A80105C0FA010081F5DF4F5F5F4F34
:14074400FA0120802220B9F75991499108952A922FB62A9256
:140758002CB020922A0129902FBE299018950E94F005C22E41
:14076C00A02E219744270DC0662708C081E088832C2D260F6C
:140780000A2D040F26DF63956830B0F34395483088F304E62E
:1407940010E0B0DF21960C94F90508950E94F005C22EA02E8B
:1407A800219744270DC0662708C0222428822C2D260F0A2D43
:1407BC00040F09DF63956830B0F34395483088F304E610E056
:1407D00093DF21960C94F90508950A921A922A923A924A9205
:1407E4005A926A927A928A929A920A931A932A933A938A93D4
:1407F8009A93AA93BA93EA93FA930FB60A92F894209103018A
:14080C0000910101C7DF80910301909104010B97909304019A
:140820008093030180910301909104018331E0E09E0734F431
:1408340086E790E0909304018093030120910301009101014C
:140848008EDF0CE211E054DF09900FBEF991E991B991A9912F
:14085C00999189913991299119910991999089907990699038
:1408700059904990399029901990099018950A921A922A923D
:140884003A924A925A926A927A928A929A920A931A932A9375
:140898003A938A939A93AA93BA93EA93FA930FB60A92F894B4
:1408AC00209103010091010175DF80910301909104010B96C0
:1408C000909304018093030186E790E020900301309004018F
:1408D400821593052CF483E190930401809303012091030169
:1408E800009101013CDF0CE211E002DF09900FBEF991E99124
:1408FC00B991A9919991899139912991199109919990899016
:140910007990699059904990399029901990099018950A9202
:140924001A922A923A924A925A926A927A928A929A920A93D6
:140938001A932A933A938A939A93AA93BA93EA93FA930FB6D1
:14094C000A92F894209103010091010123DF809101019091F1
:1409600002010B96909302018093010185EA90E02090010113
:1409740030900201821593052CF482E49093020180930101BC
:140988002091030100910101EADE0CE211E0B0DE09900FBE78
:14099C00F991E991B991A991999189913991299119910991B3
:1409B000999089907990699059904990399029901990099069
:1409C40018950A921A922A923A924A925A926A927A928A92B6
:1409D8009A920A931A932A933A938A939A93AA93BA93EA93BA
:1409EC00FA930FB60A92F8942091030100910101D1DE809175
:140A00000101909102010B97909302018093010180910101CC
:140A1400909102018234E0E09E0734F485EA90E09093020162
:140A280080930101209103010091010198DE0CE211E05EDECC
:140A3C0009900FBEF991E991B991A9919991899139912991F0
:140A50001991099199908990799069905990499039902990C6
:140A6400199009901895222421BA8FEF8ABB82E08BB988E994
:140A78008AB986E0809395008EEF82B92090090130900A01DC
:140A8C00232C3324209290002090090129B88FE189BF8AEAA7
:140AA00080936A0082E08ABF7894AA24BB24FBDD39DE83E20D
:140AB40091E0909329018093280105C00091280110912901EA
:140AC80034DEFACF08953A932A931A930A9308956894DA92C9
:140ADC00D12E04C0E894DA92D12ED32617FF04C0109500954F
:140AF0000F5F1F4F37FF04C0309520952F5F3F4F0E948D0552
:140B0400D7FE04C0109500950F5F1F4FD9900895689401C06B
:140B1800E894EA92FA928A93EE24FF2480E1000F111FEE1C49
:140B2C00FF1CE216F30618F0E21AF30A03958A95A1F716F44F
:140B40000E2D1F2D8991F990E99008950A921A928A939A93CF
:140B5400029FC001129F900D039F900D8C0199918991199024
:140B680009900895A990B990C990D9900895A990B990C99087
:140B7C00D990E990F9900895A990B990C990D990E990F99017
:140B9000499159916991799108957A936A935A934A93FA928C
:140BA400EA92DA92CA92BA92AA9208957A936A935A934A9300
:140BB8000895499159916991799108955A934A93DA92CA9295
:140BCC00BA92AA920895A990B990C990D9904991599108954B
:140BE0007A936A935A934A93DA92CA92BA92AA920895A99007
:140BF400B990C990D99049915991699179910895112319F040
:080C0800000F1A95FBCF0895BF
:00000001FF
