:100000000C9446000C9459030C940A040C94C108F7
:100010000C94C9040C944A080C948E050C94F505B4
:100020000C94CF070C9465000C9465000C9465004B
:100030000C9465000C9465000C9465000C946500AC
:100040000C9465000C9465000C9465000C9465009C
:100050000C9465000C9465000C9465000C9465008C
:100060000C9465000C9465000C9465000C9465007C
:100070000C9465000C9465000C9465000C9465006C
:100080000C9465000C9465000C94650011241FBE4F
:10009000CFEFD0E1DEBFCDBF12E0A0E0B1E0E6E7F8
:1000A000FBE200E00BBF02C007900D92A437B1073E
:1000B000D9F712E0A4E7B2E001C01D92AE37B10754
:1000C000E1F70E94D9070C94B9150C940000DF9356
:1000D000CF930F92CDB7DEB7198204C0000089819B
:1000E0008F5F898389818031C8F30F90CF91DF9131
:1000F00008958FEF8ABB8FE384BB85B38F6385BB85
:1001000008951ABA85B3897F85BB0E94670089B3B9
:100110009FEF9ABB95B3966095BB08951F93182FD8
:100120000E94810090E083709070892BC9F31BBB03
:1001300085B38A7F85BB0E94670085B3856085BBD8
:100140001F9108951F93182F0E94810090E08370E3
:100150009070892BC9F31BBB85B3827F85BB0E943E
:10016000670085B38D6085BB1F9108950E94810053
:1001700090E083709070892BC9F31ABA85B3817FA0
:1001800085BB0E94670089B395B39E6095BB9FEFC6
:100190009ABB08951F93192F0E94A200812F0E94DD
:1001A000A20084E20E948E001F9108959EE1699F43
:1001B000B00111249B01280F311DC9010E94CA0002
:1001C00008950E94A20080EC0E948E0008950F9373
:1001D0001F93182F042F86958695869590E0805260
:1001E0009E4F2EE1629FB0011124860F971F0E943F
:1001F000CA0085EC0E948E000E94B600482F212F75
:1002000030E0002369F0209530952770307081E050
:1002100090E002C0880F991F2A95E2F7842B0DC049
:10022000209530952770307081E090E002C0880FF3
:10023000991F2A95E2F7809584230E94E1001F917F
:100240000F9108950F931F93CF93DF938B0190E04D
:1002500080509E4F23E0880F991F2A95E1F70E9456
:10026000CA00C0E0D0E0F801EC0FFD1F80810E94C1
:10027000E1002196C830D105B1F7DF91CF911F91F0
:100280000F91089580520E94E1000895CF93DF936B
:10029000EC0103C021960E94420188818823D1F796
:1002A000DF91CF910895CF93DF9380EE91E00E948C
:1002B000CA00C0E0D0E080E00E94E10021968FE01B
:1002C000C030D807C1F7DF91CF910895CF93DF9366
:1002D00080E090E10E94CA00C0E0D0E080E00E948F
:1002E000E100219688E0C030D807C1F7DF91CF91B7
:1002F0000895CF93DF9380E090E00E94CA00C0E0B1
:10030000D0E080E00E94E100219681E0C03ED80765
:10031000C1F7DF91CF91089586958695869590E0F7
:1003200080529E4F2EE1629FB0011124860F971FCD
:100330000E94CA0008958FEF8ABB8FE384BB85B308
:100340008F6385BBAC98AC9AAD9880EE0E94A200FA
:1003500081E00E94A20082E40E948E008EE10E9451
:10036000A20080E00E94A20083E40E948E0080E050
:100370000E94A20080E00E94A20080E40E948E0001
:100380008EE10E94A20080E00E94A20081E40E940F
:100390008E0082E00E94A20080E00E94A20082E221
:1003A0000E948E008CE90E948E0080E80E948E00E0
:1003B000089508950E9466010E9453010E947901E8
:1003C0000895BF92CF92DF92EF92FF920F931F9307
:1003D000F82E062FB42ED22EEE24FA94CF2CC40E73
:1003E000F3940DC01E2D100F8F2D612F41E00E9440
:1003F000E7008C2D612F41E00E94E700E394ED14AB
:1004000088F3EE240150D00E0F5F0DC01E2D1F0D7E
:10041000812F602F41E00E94E700812F6D2D41E088
:100420000E94E700E394EB1488F31F910F91FF9073
:10043000EF90DF90CF90BF9008953F924F925F92E0
:100440006F927F928F929F92AF92BF92CF92DF92E4
:10045000EF92FF920F931F93CF93DF93382EC62E08
:10046000842E9924C401880F991FCC27DD27C81B2F
:10047000D90B21966624772441E0442E512CAA24DE
:10048000BB24D82CD30C062D0C0D8D2D602F41E0F4
:100490000E94E700132D1819812F602F41E00E9460
:1004A000E7000C2D0619812F602F41E00E94E70024
:1004B0008D2D602F41E00E94E700D62CD30C082D33
:1004C0000C0D8D2D602F41E00E94E700132D1619B1
:1004D000812F602F41E00E94E7000C2D0819812F29
:1004E000602F41E00E94E7008D2D602F41E00E94C7
:1004F000E7000894611C711CA40CB51C82E090E01C
:10050000480E591EC501880F991F8C0F9D1F181684
:10051000190634F4089481089108AC0EBD1E229689
:10052000861497040CF0ADCFDF91CF911F910F91FE
:10053000FF90EF90DF90CF90BF90AF909F908F9003
:100540007F906F905F904F903F9008952F923F92D1
:100550004F925F926F927F928F929F92AF92BF92D3
:10056000CF92DF92EF92FF920F931F93DF93CF937F
:1005700000D000D000D0CDB7DEB75C017E836D83A4
:100580005A8349833C832B836A01C81AD90A7901AB
:10059000E61AF70A1601220C331C2701440C551CDD
:1005A000D7FC04C071E0672E712C0BC0D094C194AD
:1005B000D108D394309421943108339466246A94FA
:1005C000762CF7FC04C061E0862E912C0BC0F094D1
:1005D000E194F108F3945094419451085394882481
:1005E0008A94982C8A2D6D8141E00E94E700C11405
:1005F000D10421F4E114F10409F442C0CE14DF0463
:1006000004F183010A0D1B1DED80FE80AA24BB248A
:10061000A40CB51CCA14DB0424F4E80CF91CA218C1
:10062000B308802F6E2D41E00E94E700060D171DD4
:10063000C8018619970929813A818217930741F7E2
:100640001FC00D811E81080D191D6501AA24BB2440
:10065000A20CB31CEA14FB0424F4C60CD71CA41887
:10066000B5088C2D602F41E00E94E700080D191D90
:10067000C80188199909EB81FC818E179F0741F702
:1006800026960FB6F894DEBF0FBECDBFCF91DF9197
:100690001F910F91FF90EF90DF90CF90BF90AF90A0
:1006A0009F908F907F906F905F904F903F902F9092
:1006B00008951F920F920FB60F920BB60F9211244E
:1006C0002F933F934F935F936F937F938F939F935A
:1006D000AF93BF93EF93FF9310926A0080917802DB
:1006E000909179020196909379028093780280919B
:1006F00078029091790281529E440CF478C08091E6
:100700007A0290917B02892B09F46DC080917A0264
:1007100090917B02019739F410927B0210927A0239
:100720000E94DA0160C080917A0290917B02029768
:1007300069F080917A0290917B02039739F0809161
:100740007A0290917B02049709F049C0809174026B
:100750009091750201979093750280937402809135
:10076000030190910401029731F08091030190916F
:100770000401049731F4809174029091750297FD01
:100780002BC08091030190910401019799F480910D
:1007900074029091750297FF0DC020917C023091F8
:1007A0007D028AE090E0821B930B90937502809308
:1007B000740219C08091030190910401039799F488
:1007C000209174023091750280917C0290917D029B
:1007D0000197281739073CF489E090E0E6CF809133
:1007E0007A0290917B021092790210927802FF9126
:1007F000EF91BF91AF919F918F917F916F915F9199
:100800004F913F912F910F900BBE0F900FBE0F9005
:100810001F9018951F920F920FB60F9211242F93CD
:100820003F938F939F9310926A00809178029091EA
:1008300079020196909379028093780280917802F0
:1008400090917902815395470CF49AC080917A0275
:1008500090917B02892BA1F480910101909102017A
:100860000197D9F08091010190910201029709F05E
:1008700083C081E090E090930201809301017CC0ED
:1008800020917A0230917B0221303105A9F48091C8
:10089000010190910201019719F482E090E0EBCF01
:1008A0008091010190910201029709F065C0309397
:1008B00002012093010160C080917A0290917B0235
:1008C000029769F080917A0290917B02039739F048
:1008D00080917A0290917B02049709F049C080913F
:1008E0007602909177020197909377028093760237
:1008F0008091030190910401019731F080910301EF
:1009000090910401039731F48091760290917702DF
:1009100097FD2BC08091030190910401029799F4F7
:10092000809176029091770297FF0DC020917C0212
:1009300030917D028AE090E0821B930B90937702C6
:100940008093760219C0809103019091040104976D
:1009500099F4209176023091770280917C029091F7
:100960007D020197281739073CF489E090E0E6CF33
:1009700080917A0290917B02109279021092780213
:100980009F918F913F912F910F900FBE0F901F90CD
:1009900018951F920F920FB60F9211242F933F9329
:1009A0004F935F938F939F9310926A008091780288
:1009B00090917902019690937902809378028091C8
:1009C000780290917902815395470CF49CC08091F4
:1009D0007A0290917B02892BA1F480910101909180
:1009E00002010197D9F080910101909102010297D3
:1009F00009F085C081E090E09093020180930101AD
:100A00007EC020917A0230917B0221303105A9F419
:100A10008091010190910201019719F482E090E028
:100A2000EBCF8091010190910201029709F067C01C
:100A3000309302012093010162C080917A0290916B
:100A40007B02029769F080917A0290917B02039772
:100A500039F080917A0290917B02049709F04BC0A3
:100A6000809176029091770201969093770280931D
:100A700076028091030190910401019731F08091F9
:100A8000030190910401039731F4809176029091D3
:100A900077020A97ACF480910301909104010297C8
:100AA000A1F4409176025091770220917C0230911E
:100AB0007D028AE090E0821B930B841795072CF44B
:100AC00010927702109276021AC0809103019091E1
:100AD00004010497A1F480917602909177020A971D
:100AE00074F080917C0290917D020197909377023F
:100AF0008093760204C080917A0290917B021092DA
:100B00007902109278029F918F915F914F913F915E
:100B10002F910F900FBE0F901F9018951F920F925C
:100B20000FB60F920BB60F9211242F933F934F9352
:100B30005F936F937F938F939F93AF93BF93EF9345
:100B4000FF93F894809178029091790201969093A6
:100B50007902809378028091780290917902815293
:100B60009E4484F180917A0290917B02892B51F10D
:100B700080917A0290917B02019729F410927B0276
:100B800010927A0218C080917A0290917B020297AB
:100B900061F080917A0290917B02039731F080910D
:100BA0007A0290917B02049749F481E090E090935F
:100BB0007B0280937A020E94DA0104C080917A025B
:100BC00090917B02FF91EF91BF91AF919F918F9197
:100BD0007F916F915F914F913F912F910F900BBE3D
:100BE0000F900FBE0F901F9018951F920F920FB687
:100BF0000F9211242F933F934F935F936F937F93A3
:100C00008F939F93F8941ABE809178029091790205
:100C10000196909379028093780280917802909166
:100C20007902895A91460CF4ADC180917C02909171
:100C30007D022091740230917502019728173907BF
:100C40008CF1209174023091750280917C02909118
:100C50007D024BE050E0BA01681B790B261737077D
:100C60000CF580917C0290917D022091760230916A
:100C70007702019728173907ACF02091760230915E
:100C8000770280917C0290917D02481B590B2417BA
:100C9000350744F4809103019091040104970CF00E
:100CA0003EC1D1C0209174023091750280917C02C6
:100CB00090917D0201972817390724F580917C02D5
:100CC00090917D022091760230917702019728174A
:100CD0003907C4F0409176025091770220917C024E
:100CE00030917D028BE090E0821B930B48175907EF
:100CF0004CF480910301909104010297A9F584E0DE
:100D000090E037C080917C0290917D022091740226
:100D100030917502019728173907BCF120917402B0
:100D20003091750280917C0290917D024BE050E001
:100D3000BA01681B790B261737073CF5209176021C
:100D40003091770280917C0290917D02481B590B73
:100D500042175307D4F48091030190910401019745
:100D600019F483E090E005C08091030190910401A3
:100D70000196909304018093030180910301909167
:100D80000401059709F0FAC0CAC02091740230919D
:100D9000750280917C0290917D024BE050E0BA0197
:100DA000681B790B6217730704F520917602309166
:100DB000770280917C0290917D02481B590B241789
:100DC00035079CF480917C0290917D0220917602FF
:100DD000309177020197281739073CF08091030181
:100DE00090910401049779F576C080917C029091EE
:100DF0007D022091740230917502019728173907FE
:100E000044F1409174025091750220917C0230911E
:100E10007D028BE090E0821B930B48175907CCF4BE
:100E2000209176023091770280917C0290917D0230
:100E30000197281739076CF4809103019091040100
:100E4000039709F46CC0809103019091040101960D
:100E500091C0209174023091750280917C02909132
:100E60007D02019728173907A4F42091760230916A
:100E7000770280917C0290917D02019728173907B3
:100E800044F48091030190910401019709F047C057
:100E900022C0409174025091750220917C023091E1
:100EA0007D028BE090E0821B930B48175907B4F04A
:100EB000209176023091770280917C0290917D02A0
:100EC00001972817390754F4809103019091040188
:100ED000029709F44DC082E090E04CC0209174026A
:100EE0003091750280917C0290917D0201972817C4
:100EF0003907C4F4409176025091770220917C0228
:100F000030917D028BE090E0821B930B48175907CC
:100F10004CF08091030190910401019731F181E03F
:100F200090E028C0209174023091750280917C027B
:100F300090917D024BE050E0BA01681B790B62177B
:100F40007307E4F4209176023091770280917C025D
:100F500090917D02481B590B241735077CF0809136
:100F6000030190910401039719F484E090E002C01A
:100F700083E090E090930401809303011092790242
:100F8000109278029F918F917F916F915F914F9115
:100F90003F912F910F900FBE0F901F9018951F92A9
:100FA0000F920FB60F9211240F900FBE0F901F904B
:100FB0001895CF92DF92FF920F931F93DF93CF93F9
:100FC000CDB7DEB7C05ED2400FB6F894DEBF0FBE1D
:100FD000CDBFFE01319680EE92E0DF019C011D92B3
:100FE00021503040E1F778948AEA80936A008ABF02
:100FF0008FEF89BF0E949B010E94DA018E010F5F73
:101000001F4FC8010E948F0EA5E0CA2ED12CF02ED2
:10101000012F80917A0290917B02892B39F4809183
:101020000101909102010E94E709F3CF80917A02B9
:1010300090917B02019739F4809101019091020116
:101040000E948509E6CF80917A0290917B020297F7
:1010500061F080917A0290917B02039731F0809148
:101060007A0290917B020497A1F6D0927D02C09201
:101070007C026091740270917502409176025091E9
:10108000770220910301309104018F2D902F0E944F
:101090000D0DBFCF1F920F920FB60F920BB60F928E
:1010A00011242F933F934F935F936F937F938F936D
:1010B0009F93AF93BF93EF93FF93F894809178023F
:1010C00090917902019690937902809378028091B1
:1010D00078029091790281529E440CF43FC0809135
:1010E0007A0290917B02892B49F481E090E0909301
:1010F0007B0280937A020E94DA012CC080917A02EE
:1011000090917B02019781F48091010190910201FD
:10111000019690937B0280937A020E94DA018AE022
:1011200090E00E94580E16C080917A0290917B0246
:10113000029781F080917A0290917B02039751F09F
:1011400080917A0290917B02049721F080917A023B
:1011500090917B021092790210927802FF91EF91A8
:10116000BF91AF919F918F917F916F915F914F91BF
:101170003F912F910F900BBE0F900FBE0F901F90BD
:1011800018951F920F920FB60F920BB60F92112463
:101190002F933F934F935F936F937F938F939F937F
:1011A000AF93BF93EF93FF9310926A008091780200
:1011B00090917902019690937902809378028091C0
:1011C000780290917902895A91460CF48BC08091F3
:1011D0007A0290917B02892B49F481E090E0909310
:1011E0007B0280937A020E94DA0178C080917A02B1
:1011F00090917B02019781F480910101909102010D
:10120000019690937B0280937A020E94DA018AE031
:1012100090E00E94580E62C080917A0290917B0209
:10122000029769F080917A0290917B02039739F0DE
:1012300080917A0290917B02049709F04BC08091D3
:1012400074029091750201969093750280937402D6
:101250008091030190910401029731F08091030184
:1012600090910401049731F4809174029091750279
:101270000A97ACF480910301909104010197A1F4C5
:10128000409174025091750220917C0230917D0250
:101290008AE090E0821B930B841795072CF4109240
:1012A0007502109274021AC080910301909104019A
:1012B0000397A1F480917402909175020A9774F0DB
:1012C00080917C0290917D020197909375028093AA
:1012D000740204C080917A0290917B02109279028C
:1012E00010927802FF91EF91BF91AF919F918F91F2
:1012F0007F916F915F914F913F912F910F900BBE16
:101300000F900FBE0F901F901895CF93DF93EC01B5
:1013100086E090E064E070E00E94D60085E091E015
:101320000E94460187E090E067E070E00E94D600EE
:1013300087E191E00E94460187E090E069E070E07B
:101340000E94D60084E291E00E944601C130D1059E
:10135000E9F488E893E120E931E0F9013197F1F708
:101360000197D9F787E090E067E070E00E94D6002F
:1013700081E391E00E94460188E893E120E931E0B1
:10138000F9013197F1F70197D9F71EC02297E1F4DF
:1013900088E893E120E931E0F9013197F1F701970D
:1013A000D9F787E090E069E070E00E94D60081E321
:1013B00091E00E94460188E893E120E931E0F901DB
:1013C0003197F1F70197D9F7DF91CF910895CF9336
:1013D000DF93EC0189E090E064E070E00E94D600C9
:1013E00083E491E00E94460187E090E067E070E0CE
:1013F0000E94D6008FE491E00E94460187E090E0D1
:1014000069E070E00E94D6008EE591E00E944601FE
:10141000C130D105E9F488E893E120E931E0F90130
:101420003197F1F70197D9F787E090E067E070E036
:101430000E94D60081E391E00E94460188E893E192
:1014400020E931E0F9013197F1F70197D9F71EC092
:101450002297E1F488E893E120E931E0F90131973E
:10146000F1F70197D9F787E090E069E070E00E941A
:10147000D60081E391E00E94460188E893E120E9EB
:1014800031E0F9013197F1F70197D9F7DF91CF9169
:1014900008952F923F924F925F926F927F928F9218
:1014A0009F92AF92BF92CF92DF92EF92FF920F93F3
:1014B0001F93DF93CF93CDB7DEB762970FB6F89443
:1014C000DEBF0FBECDBFFC012230310509F467C07D
:1014D000233031052CF42130310509F08DC187C04E
:1014E0002330310579F12430310509F085C18BE0D5
:1014F00090E0689F9001699F300D789F300D112416
:10150000B2E46B2E712C620E731EBC01469FC001AB
:10151000479F900D569F900D1124A0ED8A2EA2E0BA
:101520009A2E8E0E9F1E8C01095110405801EAE43C
:101530002E2E312C220E331E75E1472E512C480ED3
:10154000591E51C18BE090E0689F9001699F300D5A
:10155000789F300D1124BC01469FC001479F900D1C
:10156000569F900D112463E1662E712C680E791E32
:1015700056E1A52EB12CA20EB31E40ED842E42E002
:10158000942E8E0E9F1E65010BE1202E312C280E0D
:10159000391E14E4412E512C420E531EEDC08BE037
:1015A00090E0689F9001699F300D789F300D112465
:1015B000B2E46B2E712C620E731EBC01469FC001FB
:1015C000479F900D569F900D1124A3E1AA2EB12C98
:1015D000A80EB91E4F0165017AE4272E312C220E88
:1015E000331E61E4462E512C480E591E8DC08BE0EF
:1015F00090E0689F9001699F300D789F300D112415
:10160000BC01469FC001479F900D569F900D11242D
:1016100053E1652E712C680E791E4F0189010E5B16
:101620001F4F58014BE1242E312C280E391E80E724
:10163000482E512C420E531E2FC0F60180819181FD
:10164000019739F48F85988969897A8941E050E05A
:1016500005C08F819885B70140E050E00E94E70007
:1016600062E070E0C60ED71E89899A8901969A8B2E
:10167000898B0894E11CF11C82159305F1F6E0E1D9
:10168000F0E08E0E9F1E0F5F1F4F0894A11CB11C2F
:101690000415150509F4B0C00F87188BAF82B88602
:1016A000640173017A8A698AC8CFF70186859785B4
:1016B000019739F489899A896D857E8541E050E0EA
:1016C00005C0C8016D817E8140E050E00E94E700C6
:1016D0006EEF7FEFE60EF71E89899A8901969A8B45
:1016E000898B0F5F1F4F82159305F9F60894C11C73
:1016F000D11C0894A11CB11CE0E1F0E08E0E9F1EED
:10170000C414D50409F478C0CD86DE86AD82BE82CD
:101710007A8A698A74018301C8CFF7018685978523
:10172000019739F48B859C8569897A8941E050E07D
:1017300005C08B819C81B80140E050E00E94E70029
:101740006EEF7FEFE60EF71E89899A8901969A8BD4
:10175000898B0F5F1F4F82159305F9F60894C11C02
:10176000D11C0894A11CB11CE0EFFFEF8E0E9F1E50
:10177000C414D50409F440C0CB86DC86AB82BC829D
:101780007A8A698A74018301C8CFF60180819181C8
:10179000019739F489899A8969857A8541E050E011
:1017A00005C0C70169817A8140E050E00E94E700EE
:1017B00062E070E0C60ED71E89899A8901969A8BDD
:1017C000898B0894E11CF11C82159305F1F6E0EF7A
:1017D000FFEF8E0E9F1E0F5F1F4F0894A11CB11CC0
:1017E0000415150549F009871A87A982BA82640190
:1017F0007A8A698A7301C9CF62960FB6F894DEBF00
:101800000FBECDBFCF91DF911F910F91FF90EF9051
:10181000DF90CF90BF90AF909F908F907F906F9010
:101820005F904F903F902F9008952F923F924F924C
:101830005F926F927F928F929F92AF92BF92CF9260
:10184000DF92EF92FF920F931F93DF93CF93CDB769
:10185000DEB728970FB6F894DEBF0FBECDBF2BE0E2
:1018600030E0629F3001639F700C729F700C1124F6
:1018700041E150E0640E751E829FF001839FF00DE0
:10188000929FF00D1124E05CFF4FF887EF831F015A
:101890002F01EE24FF243FC0E114F10421F0FBE00E
:1018A000EF16F10421F48D819E81B40109C0011568
:1018B000110519F00B30110531F48B819C81B501B4
:1018C00041E050E005C089819A81B60140E050E0D6
:1018D0000E94E7000F5F1F4F0894811C911C089421
:1018E000A11CB11C0894C11CD11C0C301105A1F61F
:1018F0000894E11CF11C4F8158854F5F5F4F58875A
:101900004F830894211C311C0894411C511C5CE03D
:10191000E516F10471F049825A822B823C828F8154
:101920008D8398859E8343015301630100E010E09D
:10193000B3CF28960FB6F894DEBF0FBECDBFCF91C0
:10194000DF911F910F91FF90EF90DF90CF90BF90AC
:10195000AF909F908F907F906F905F904F903F904F
:101960002F900895CF92DF92EF92FF920F931F93E3
:10197000CF93DF936C017B018A012230310599F00E
:101980002330310524F421303105F1F50FC0233027
:10199000310531F024303105B9F5C0E0D0E031C077
:1019A000C0E0D0E023C0C0E0D0E015C0C0E0D0E08F
:1019B00007C0CE018C0D9D1DB7010E94150C21960C
:1019C000C017D107B4F320C0BE016E0D7F1DC60144
:1019D0000E94150C2196C017D107B4F315C0C6019B
:1019E0008C1B9D0BB7010E94150C2196C017D107C7
:1019F000B4F30AC0B7016C1B7D0BC6010E94150C25
:101A00002196C017D107B4F3DF91CF911F910F91A9
:101A1000FF90EF90DF90CF900895EF92FF920F9399
:101A20001F93CF93DF93EB018A0179010E94490A4A
:101A300088EB9BE020E931E0F9013197F1F701975C
:101A4000D9F7CE01B80145E050E097010E94B20CF1
:101A500088EB9BE020E931E0F9013197F1F701973C
:101A6000D9F7DF91CF911F910F91FF90EF900895DB
:101A70008F929F92AF92BF92CF92DF92EF92FF929E
:101A80000F931F93CF93DF932BE0829FC00111240C
:101A9000629FB001112443E1A42EB12CA60EB71E03
:101AA0008C010E5B1F4F3BE1C32ED12CC60ED71EFF
:101AB0002AE4E22EF12CE80EF91E0FC0C401BE018B
:101AC00040E050E00E94E7002196CC15DD05B1F71B
:101AD0000F5F1F4F0E151F0519F04801E501EECFEE
:101AE000DF91CF911F910F91FF90EF90DF90CF90FA
:101AF000BF90AF909F908F9008958F929F92AF92DA
:101B0000BF92CF92DF92EF92FF920F931F93CF93EA
:101B1000DF932BE0829FC0011124629FB00111244A
:101B2000F3E1AF2EB12CA60EB71E8C010E5B1F4F3A
:101B3000EBE1CE2ED12CC60ED71E5AE4E52EF12CA9
:101B4000E80EF91E0FC0C401BE0141E050E00E9442
:101B5000E7002196CC15DD05B1F70F5F1F4F0E157D
:101B60001F0519F04801E501EECFDF91CF911F91DC
:101B70000F91FF90EF90DF90CF90BF90AF909F902C
:101B80008F9008958F929F92AF92BF92CF92DF92E3
:101B9000EF92FF920F931F93982E862E7A010E9448
:101BA0007D0D0027F7FC0095102FC801B7010E949A
:101BB000DB125B016C0120E030E04AE755E40E9453
:101BC00051117B018C0120E030E040E85FE30E948E
:101BD000AB1288231CF461E070E024C0C801B70197
:101BE00020E03FEF4FE757E40E944B121816B4F481
:101BF000C601B50120E030E040E251E40E945111FD
:101C00000E947B0F80E991E005C0FC013197F1F75C
:101C10006150704061157105C1F707C0C801B70177
:101C20000E947B0FCB010197F1F7892D682D0E944F
:101C3000380DC801B70120E030E040E85FE30E94C2
:101C4000AB1288231CF461E070E024C0C801B70126
:101C500020E03FEF4FE757E40E944B121816B4F410
:101C6000C601B50120E030E040E251E40E9451118C
:101C70000E947B0F80E991E005C0FC013197F1F7EC
:101C80006150704061157105C1F707C0C801B70107
:101C90000E947B0FCB010197F1F71F910F91FF90ED
:101CA000EF90DF90CF90BF90AF909F908F9008956E
:101CB000CF92DF92EF92FF920F931F93CF93DF9318
:101CC0007C0100E010E0CFE7D0E0AFEBCA2ED12CD2
:101CD00015C080E490E0BE014EEA50E09E010E94F3
:101CE000A602A6014C1B5D0BCA016FE770E021E163
:101CF00030E00E94A6020F5F1F4F2B97E016F106FF
:101D000044F7DF91CF911F910F91FF90EF90DF90FB
:101D1000CF9008958AE090E00E94580E08956F9247
:101D20007F928F929F92AF92BF92CF92DF92EF926B
:101D3000FF920F931F93CF93DF93EC01FC01E056CA
:101D4000FF4F8AE090E041E0842E912C91828082C6
:101D50000196709684319105C9F7DE01A059BE4FF6
:101D600011969C928E92C058DE4F99828882C058FC
:101D7000D14030E9632E31E0732E6C0E7D1EF301ED
:101D800091828082C057DF4F9B828A82C055DF4F8D
:101D90009B828A82C054D14013969C928E92129755
:101DA0009382828220ECA22E21E0B22EAC0EBD1EC8
:101DB000F5019382828290EDC92E91E0D92ECC0E4E
:101DC000DD1EF60193828282E12C82E0F82EEC0E79
:101DD000FD1EF701938282828E01005F1D4FF80184
:101DE00093828282BE01605C7D4FFB01938282827E
:101DF000AE01405B5D4FFA01938282829E012058C2
:101E00003D4FF90193828282CE0180579D4FFC01A4
:101E100093828282C058DF4F9D828C82C053DF4FF5
:101E20009D828C82C055D14015969C928E921497BB
:101E3000F30195828482F50195828482F601958270
:101E40008482F70195828482F80195828482FB0165
:101E500095828482FA0195828482F9019582848236
:101E6000FC0195828482FE0180E090E021E030E078
:101E700037832683019670968E329105C9F7398F84
:101E8000288FC054DD4F39872887C05CD2403BA7DC
:101E90002AA7C055DD4F3B872A87C05BD2409E01F1
:101EA000205D3F4FFE01FC9683E090E041E050E072
:101EB00051834083019670968B329105C9F7F901E1
:101EC0003E9683E090E021E030E03183208301966C
:101ED00070968B329105C9F7DF91CF911F910F91C9
:101EE000FF90EF90DF90CF90BF90AF909F908F903A
:101EF0007F906F900895EF92FF920F931F937B0155
:101F00008C0120E030E040E05FE40E947B128823F7
:101F10008CF0C801B70120E030E040E05FE40E94AF
:101F2000F3100E9439139B01AC0120503040404017
:101F3000504806C0C801B7010E9439139B01AC018B
:101F4000B901CA011F910F91FF90EF900895A0E091
:101F5000B0E0EDEAFFE00C948215DC012B01FA0100
:101F60009C91923008F439C1EB018881823008F4E9
:101F700033C1943069F4843009F02FC111969C91DB
:101F800011978981981709F428C1ACE6B1E025C101
:101F9000843009F421C18230A9F4923009F01DC1C6
:101FA0009A01AD0188E0EA010990AE01E9010992C8
:101FB0009E018150C1F7E201898111969C9189238C
:101FC000818308C1923009F407C112962D903C908C
:101FD0001397EB018A819B811496AD90BD90CD90B3
:101FE000DC901797EC80FD800E811F819101281BEA
:101FF000390BB90137FF04C066277727621B730BC3
:10200000603271050CF061C0121613066CF53701D1
:102010004801062E04C096948794779467940A9496
:10202000D2F721E030E040E050E004C0220F331F3F
:10203000441F551F6A95D2F7215030404040504010
:102040002E213F2140235123211531054105510502
:1020500021F021E030E040E050E079018A01E628FB
:10206000F728082919293CC0232BD1F1260E371E49
:1020700035014601062E04C09694879477946794A0
:102080000A94D2F721E030E040E050E004C0220F93
:10209000331F441F551F6A95D2F7215030404040EE
:1020A00050402A213B214C215D212115310541055C
:1020B000510521F021E030E040E050E059016A0193
:1020C000A628B728C828D9280BC0821593052CF05C
:1020D0001C01AA24BB24650103C0EE24FF24870150
:1020E00011969C91D20111968C91981709F445C0D4
:1020F000992339F0A80197012A193B094C095D0978
:1021000006C0A60195012E193F09400B510B57FD42
:1021100008C0118233822282248335834683578309
:102120001DC081E081833382228288279927DC01C8
:10213000821B930BA40BB50B84839583A683B78373
:102140000DC0220F331F441F551F24833583468340
:102150005783828193810197938382832481358180
:1021600046815781DA01C9010197A109B1098F5F41
:102170009F4FAF4FBF4328F30BC09183338222821E
:10218000EA0CFB1C0C1D1D1DE482F58206831783DF
:1021900083E08083248135814681578157FF1AC0AF
:1021A000C901AA2797FDA095BA2F81709070A070E1
:1021B000B0705695479537952795822B932BA42B76
:1021C000B52B84839583A683B783828193810196FF
:1021D00093838283DF0101C0D201CD01CDB7DEB789
:1021E000E2E10C949E15A0E2B0E0E9EFF0E10C947E
:1021F0008E1569837A838B839C832D833E834F83E3
:102200005887E9E0EE2EF12CEC0EFD1ECE01019672
:10221000B7010E94B1148E010F5E1F4FCE010596CB
:10222000B8010E94B1148A8991E089278A8BC7017D
:10223000B801AE01475E5F4F0E94A70F0E94DC13FA
:10224000A096E6E00C94AA15A0E2B0E0EAE2F1E183
:102250000C948E1569837A838B839C832D833E83B4
:102260004F835887F9E0EF2EF12CEC0EFD1ECE01C6
:102270000196B7010E94B1148E010F5E1F4FCE016F
:102280000596B8010E94B114C701B801AE01475EBE
:102290005F4F0E94A70F0E94DC13A096E6E00C940B
:1022A000AA15A0E2B0E0E7E5F1E10C94821569839C
:1022B0007A838B839C832D833E834F835887CE0103
:1022C0000196BE01675F7F4F0E94B114CE01059653
:1022D000BE016F5E7F4F0E94B1149985923088F0E5
:1022E00089898230C8F0943019F4823051F404C0E6
:1022F000843029F4923081F48CE691E0C6C09230AB
:1023000049F420E09A858A89981321E02A87CE0132
:102310000996BBC0823049F420E09A858A899813D7
:1023200021E02A8BCE014196B0C02D843E844F849B
:1023300058886D887E888F88988CEE24FF248701CA
:10234000AA24BB24650140E050E060E070E0E0E0DA
:10235000F0E0C10181709070892BE9F0E60CF71C68
:10236000081D191D9A01AB012A0D3B1D4C1D5D1D59
:1023700080E090E0A0E0B0E0E614F704080519055D
:1023800020F481E090E0A0E0B0E0BA01A901480F9C
:10239000591F6A1F7B1FAA0CBB1CCC1CDD1C97FE9F
:1023A00008C081E090E0A0E0B0E0A82AB92ACA2ADB
:1023B000DB2A3196E032F10549F0660C771C881C67
:1023C000991C5694479437942794C3CFFA85EA8989
:1023D0002B893C898B859C85280F391F2E5F3F4FA9
:1023E00017C0CA0181709070892B61F0169507950E
:1023F000F794E79480E090E0A0E0B0E8E82AF92ABA
:102400000A2B1B2B76956795579547952F5F3F4F66
:1024100077FDE7CF0CC0440F551F661F771F17FDD0
:102420004160EE0CFF1C001F111F21503040403056
:1024300090E0590790E0690790E4790760F32B8FEB
:102440003C8FDB01CA018F779070A070B070803430
:102450009105A105B10561F447FD0AC0E114F1043D
:102460000105110529F0405C5F4F6F4F7F4F4078A9
:102470001A8EFE1711F081E08A8F4D8F5E8F6F8F5D
:1024800078A383E0898FCE0149960E94DC13A09641
:10249000E2E10C949E15A8E1B0E0E1E5F2E10C94D4
:1024A0008E1569837A838B839C832D833E834F8330
:1024B000588789E0E82EF12CEC0EFD1ECE01019626
:1024C000B7010E94B1148E010F5E1F4FCE01059619
:1024D000B8010E94B1148985823040F08989823028
:1024E00028F0C701B8010E94291501C08FEF689636
:1024F000E6E00C94AA15A8E1B0E0E1E8F2E10C9462
:102500008E1569837A838B839C832D833E834F83CF
:10251000588789E0E82EF12CEC0EFD1ECE010196C5
:10252000B7010E94B1148E010F5E1F4FCE010596B8
:10253000B8010E94B1148985823040F089898230C7
:1025400028F0C701B8010E94291501C08FEF6896D5
:10255000E6E00C94AA15A8E1B0E0E1EBF2E10C94FE
:102560008E1569837A838B839C832D833E834F836F
:10257000588789E0E82EF12CEC0EFD1ECE01019665
:10258000B7010E94B1148E010F5E1F4FCE01059658
:10259000B8010E94B1148985823040F08989823067
:1025A00028F0C701B8010E94291501C081E0689692
:1025B000E6E00C94AA15A8E0B0E0E1EEF2E10C949C
:1025C0008B159B01AC0183E08983DA01C90188275F
:1025D000B7FD83959927AA27BB27B82E211531056A
:1025E0004105510519F482E089833AC08823A9F096
:1025F000203080E0380780E0480780E8580729F459
:1026000060E070E080E09FEC30C0EE24FF248701A2
:10261000E21AF30A040B150B02C079018A018EE15C
:10262000C82ED12CDC82CB82ED82FE820F831887EC
:10263000C801B7010E948D1301971816190684F47A
:10264000082E04C0EE0CFF1C001F111F0A94D2F7C5
:10265000ED82FE820F831887C81AD90ADC82CB82EA
:10266000BA82CE0101960E94DC132896E9E00C9410
:10267000A715ACE0B0E0EFE3F3E10C9492156983A9
:102680007A838B839C83CE010196BE016B5F7F4F63
:102690000E94B1148D81823061F1823050F184301A
:1026A00021F48E81882351F12EC02F81388537FD8A
:1026B00020C06E812F3131051CF06623F9F023C054
:1026C0008EE190E0821B930B29853A854B855C85D2
:1026D00004C056954795379527958A95D2F7662376
:1026E000B1F050954095309521953F4F4F4F5F4F3A
:1026F0000EC020E030E040E050E009C02FEF3FEF97
:102700004FEF5FE704C020E030E040E050E8B9015F
:10271000CA012C96E2E00C94AE15EF92FF920F9353
:102720001F937B018C0180E0E81680E0F80681E0D1
:10273000080780E0180788F48FEFE816F104010518
:10274000110531F028F088E090E0A0E0B0E017C07B
:1027500080E090E0A0E0B0E012C080E0E81680E009
:10276000F80680E0080781E0180728F088E190E08B
:10277000A0E0B0E004C080E190E0A0E0B0E020E2A2
:1027800030E040E050E0281B390B4A0B5B0B04C0E3
:1027900016950795F794E7948A95D2F7F701EC58C8
:1027A000FE4F8081281B310941095109C9011F9140
:1027B0000F91FF90EF900895DF92EF92FF920F93A9
:1027C0001F93FC01E480F58006811781D180808110
:1027D000823048F480E090E0A0E1B0E0E82AF92AF5
:1027E0000A2B1B2BA5C0843009F49FC0823021F432
:1027F000EE24FF24870105C0E114F1040105110551
:1028000019F4E0E0F0E096C0628173819FEF6238D6
:1028100079070CF05BC022E83FEF261B370B2A310B
:1028200031052CF020E030E040E050E02AC0B80153
:10283000A701022E04C076956795579547950A948F
:10284000D2F781E090E0A0E0B0E004C0880F991FCB
:10285000AA1FBB1F2A95D2F70197A109B1098E21A2
:102860009F21A023B1230097A105B10521F081E0AC
:1028700090E0A0E0B0E09A01AB01282B392B4A2B65
:102880005B2BDA01C9018F779070A070B070803433
:102890009105A105B10539F427FF09C0205C3F4F20
:1028A0004F4F5F4F04C0215C3F4F4F4F5F4FE0E001
:1028B000F0E02030A0E03A07A0E04A07A0E45A0781
:1028C00010F0E1E0F0E079018A0127C0603871057D
:1028D00064F5FB01E158FF4FD801C7018F77907075
:1028E000A070B07080349105A105B10539F4E7FE00
:1028F0000DC080E490E0A0E0B0E004C08FE390E081
:10290000A0E0B0E0E80EF91E0A1F1B1F17FF05C06C
:1029100016950795F794E794319687E016950795F5
:10292000F794E7948A95D1F705C0EE24FF24870138
:10293000EFEFF0E06E2F679566276795902F9F77F2
:10294000D794DD24D7948E2F8695492F462B582F68
:102950005D29B701CA011F910F91FF90EF90DF90A1
:102960000895FC01DB01408151812281622F6F7744
:1029700070E0221F2227221F9381892F880F822B2C
:10298000282F30E0991F9927991F11969C93119732
:1029900021153105A9F5411551056105710511F4A0
:1029A00082E037C082E89FEF13969C938E93129734
:1029B0009A01AB0167E0220F331F441F551F6A9530
:1029C000D1F783E08C930DC0220F331F441F551F96
:1029D00012968D919C911397019713969C938E93C9
:1029E0001297203080E0380780E0480780E45807DD
:1029F00058F314962D933D934D935C931797089538
:102A00002F3F310579F4411551056105710519F420
:102A100084E08C93089564FF03C081E08C9312C01E
:102A20001C9210C02F57304013963C932E93129750
:102A300083E08C9387E0440F551F661F771F8A95AC
:102A4000D1F7706414964D935D936D937C931797B3
:102A500008951F93DC01FB019C91923008F447C05C
:102A60008081823008F443C0943051F411961C9157
:102A7000843099F58181682F70E0611B71093FC036
:102A8000843021F0923031F48230B9F18181882391
:102A900089F12DC011961C9111978230F1F081813E
:102AA0001817D9F412962D913C9113978281938136
:102AB0008217930794F028173907BCF014968D916C
:102AC0009D910D90BC91A02D248135814681578127
:102AD000281739074A075B0718F4112341F00AC089
:102AE00082179307A407B50740F4112319F061E09A
:102AF00070E005C06FEF7FEF02C060E070E0CB01D7
:102B00001F9108952F923F924F925F926F927F9202
:102B10008F929F92AF92BF92CF92DF92EF92FF92ED
:102B20000F931F93CF93DF93CDB7DEB7CA1BDB0B99
:102B30000FB6F894DEBF0FBECDBF09942A8839883E
:102B400048885F846E847D848C849B84AA84B98445
:102B5000C884DF80EE80FD800C811B81AA81B98151
:102B6000CE0FD11D0FB6F894DEBF0FBECDBFED0165
:062B70000895F894FFCF68
:102B7600010100010053656C656374204469666653
:102B86006963756C747900312E2045617379204D27
:102B96006F646500322E2048617264204D6F646553
:102BA600002020202020202020202020202020203F
:102BB60020200053656C656374204D6F6465003199
:102BC6002E2053696E676C6520506C617900322E39
:102BD600204D756C746920506C617900000000000E
:102BE60000000000000102020303030304040404BE
:102BF6000404040405050505050505050505050583
:102C06000505050506060606060606060606060662
:102C1600060606060606060606060606060606064E
:102C26000606060607070707070707070707070732
:102C3600070707070707070707070707070707071E
:102C4600070707070707070707070707070707070E
:102C560007070707070707070707070707070707FE
:102C660007070707080808080808080808080808E2
:102C760008080808080808080808080808080808CE
:102C860008080808080808080808080808080808BE
:102C960008080808080808080808080808080808AE
:102CA600080808080808080808080808080808089E
:102CB600080808080808080808080808080808088E
:102CC600080808080808080808080808080808087E
:102CD600080808080808080808080808080808086E
:042CE60008080808CA
:00000001FF
